{
  "_format": "hh-sol-artifact-1",
  "contractName": "ClaimReferral",
  "sourceName": "contracts/Campaign/1744wa/ClaimReferral.sol",
  "abi": [
    {
      "inputs": [
        {
          "internalType": "address",
          "name": "_trustedForwarder",
          "type": "address"
        }
      ],
      "stateMutability": "nonpayable",
      "type": "constructor"
    },
    {
      "anonymous": false,
      "inputs": [
        {
          "indexed": true,
          "internalType": "address",
          "name": "from",
          "type": "address"
        },
        {
          "indexed": true,
          "internalType": "address",
          "name": "tokenAddress",
          "type": "address"
        },
        {
          "indexed": true,
          "internalType": "uint256",
          "name": "tokenId",
          "type": "uint256"
        },
        {
          "indexed": false,
          "internalType": "address",
          "name": "by",
          "type": "address"
        },
        {
          "indexed": false,
          "internalType": "string",
          "name": "referral",
          "type": "string"
        }
      ],
      "name": "ClaimedWithReferral",
      "type": "event"
    },
    {
      "anonymous": false,
      "inputs": [
        {
          "indexed": true,
          "internalType": "address",
          "name": "previousOwner",
          "type": "address"
        },
        {
          "indexed": true,
          "internalType": "address",
          "name": "newOwner",
          "type": "address"
        }
      ],
      "name": "OwnershipTransferred",
      "type": "event"
    },
    {
      "anonymous": false,
      "inputs": [
        {
          "indexed": false,
          "internalType": "address",
          "name": "account",
          "type": "address"
        }
      ],
      "name": "Paused",
      "type": "event"
    },
    {
      "anonymous": false,
      "inputs": [
        {
          "indexed": false,
          "internalType": "address",
          "name": "account",
          "type": "address"
        }
      ],
      "name": "Unpaused",
      "type": "event"
    },
    {
      "inputs": [
        {
          "internalType": "address",
          "name": "from",
          "type": "address"
        },
        {
          "internalType": "address",
          "name": "tokenAddress",
          "type": "address"
        },
        {
          "internalType": "uint256",
          "name": "tokenId",
          "type": "uint256"
        },
        {
          "internalType": "string",
          "name": "referral",
          "type": "string"
        },
        {
          "internalType": "bytes32[]",
          "name": "proof",
          "type": "bytes32[]"
        }
      ],
      "name": "claimTokenWithReferral",
      "outputs": [],
      "stateMutability": "nonpayable",
      "type": "function"
    },
    {
      "inputs": [
        {
          "internalType": "address",
          "name": "forwarder",
          "type": "address"
        }
      ],
      "name": "isTrustedForwarder",
      "outputs": [
        {
          "internalType": "bool",
          "name": "",
          "type": "bool"
        }
      ],
      "stateMutability": "view",
      "type": "function"
    },
    {
      "inputs": [],
      "name": "owner",
      "outputs": [
        {
          "internalType": "address",
          "name": "",
          "type": "address"
        }
      ],
      "stateMutability": "view",
      "type": "function"
    },
    {
      "inputs": [],
      "name": "pause",
      "outputs": [],
      "stateMutability": "nonpayable",
      "type": "function"
    },
    {
      "inputs": [],
      "name": "paused",
      "outputs": [
        {
          "internalType": "bool",
          "name": "",
          "type": "bool"
        }
      ],
      "stateMutability": "view",
      "type": "function"
    },
    {
      "inputs": [],
      "name": "renounceOwnership",
      "outputs": [],
      "stateMutability": "nonpayable",
      "type": "function"
    },
    {
      "inputs": [
        {
          "internalType": "address",
          "name": "tokenAddress",
          "type": "address"
        },
        {
          "internalType": "uint256",
          "name": "tokenId",
          "type": "uint256"
        },
        {
          "internalType": "bytes32",
          "name": "root",
          "type": "bytes32"
        }
      ],
      "name": "setMerkleRoot",
      "outputs": [],
      "stateMutability": "nonpayable",
      "type": "function"
    },
    {
      "inputs": [
        {
          "internalType": "address",
          "name": "newOwner",
          "type": "address"
        }
      ],
      "name": "transferOwnership",
      "outputs": [],
      "stateMutability": "nonpayable",
      "type": "function"
    },
    {
      "inputs": [],
      "name": "unpause",
      "outputs": [],
      "stateMutability": "nonpayable",
      "type": "function"
    },
    {
      "inputs": [
        {
          "internalType": "address",
          "name": "",
          "type": "address"
        },
        {
          "internalType": "string",
          "name": "",
          "type": "string"
        }
      ],
      "name": "userCodeClaimed",
      "outputs": [
        {
          "internalType": "bool",
          "name": "",
          "type": "bool"
        }
      ],
      "stateMutability": "view",
      "type": "function"
    },
    {
      "inputs": [
        {
          "internalType": "address",
          "name": "",
          "type": "address"
        },
        {
          "internalType": "string",
          "name": "",
          "type": "string"
        }
      ],
      "name": "userTokenRoot",
      "outputs": [
        {
          "internalType": "bytes32",
          "name": "",
          "type": "bytes32"
        }
      ],
      "stateMutability": "view",
      "type": "function"
    }
  ],
  "bytecode": "0x60a06040523480156200001157600080fd5b506040516200110038038062001100833981016040819052620000349162000112565b6001600160a01b038116608052620000556200004f62000069565b62000085565b506000805460ff60a01b1916905562000144565b600062000080620000d560201b620007ca1760201c565b905090565b600080546001600160a01b038381166001600160a01b0319831681178455604051919092169283917f8be0079c531659141344cd1fd0a4f28419497f9722a3daafe3b4186f6b6457e09190a35050565b6080516000906001600160a01b0316331415620000f9575060131936013560601c90565b620000806200010e60201b620007f11760201c565b3390565b6000602082840312156200012557600080fd5b81516001600160a01b03811681146200013d57600080fd5b9392505050565b608051610fa062000160600039600061027a0152610fa06000f3fe608060405234801561001057600080fd5b50600436106100a85760003560e01c8063642fedcf11610071578063642fedcf14610139578063715018a61461014c5780638456cb59146101545780638da5cb5b1461015c578063d6897d8514610177578063f2fde38b146101c157600080fd5b80624739af146100ad57806313b7513f146101015780633f4ba83a14610116578063572b6c051461011e5780635c975abb14610131575b600080fd5b6100ec6100bb366004610c55565b6001602090815260009283526040909220815180830184018051928152908401929093019190912091525460ff1681565b60405190151581526020015b60405180910390f35b61011461010f366004610ca3565b6101d4565b005b610114610259565b6100ec61012c366004610cd6565b610278565b6100ec6102aa565b610114610147366004610cf1565b6102ba565b610114610723565b610114610735565b6000546040516001600160a01b0390911681526020016100f8565b6101b3610185366004610c55565b6002602090815260009283526040909220815180830184018051928152908401929093019190912091525481565b6040519081526020016100f8565b6101146101cf366004610cd6565b610751565b60006101df836107f5565b9050600084826040516020016101f6929190610de5565b604051602081830303815290604052905082600260006102146108fb565b6001600160a01b03166001600160a01b03168152602001908152602001600020826040516102429190610e1d565b908152604051908190036020019020555050505050565b610261610905565b6102696102aa565b156102765761027661097e565b565b7f00000000000000000000000000000000000000000000000000000000000000006001600160a01b0390811691161490565b600054600160a01b900460ff1690565b6102c26109d9565b6102cb33610278565b61030d5760405162461bcd60e51b815260206004820152600e60248201526d24b73b30b634b21031b0b63632b960911b60448201526064015b60405180910390fd5b6000836040516020016103209190610e1d565b6040516020818303038152906040528051906020012090506000610343866107f5565b90506000878260405160200161035a929190610de5565b60408051601f198184030181528282526001600160a01b038c16600090815260026020529182209093509091610391908490610e1d565b90815260200160405180910390205490506103ae86868387610a21565b6103f25760405162461bcd60e51b8152602060048201526015602482015274496e76616c69642070726f6f66206f7220636f646560581b6044820152606401610304565b6001600160a01b038a16600090815260016020526040908190209051610419908990610e1d565b9081526040519081900360200190205460ff16156104655760405162461bcd60e51b81526020600482015260096024820152687573656420636f646560b81b6044820152606401610304565b60405163e985e9c560e01b81526001600160a01b038b81166004830152306024830152600091908b169063e985e9c590604401602060405180830381865afa1580156104b5573d6000803e3d6000fd5b505050506040513d601f19601f820116820180604052508101906104d99190610e39565b90508061051d5760405162461bcd60e51b815260206004820152601260248201527113dddb995c881b9bdd08185c1c1c9bdd995960721b6044820152606401610304565b604051627eeac760e11b81526001600160a01b038c81166004830152602482018b9052600091908c169062fdd58e90604401602060405180830381865afa15801561056c573d6000803e3d6000fd5b505050506040513d601f19601f820116820180604052508101906105909190610e5b565b905060018110156105de5760405162461bcd60e51b81526020600482015260186024820152774e6f2062616c616e6365206c65667420746f20636c61696d60401b6044820152606401610304565b8a6001600160a01b031663f242432a8d6105f66108fb565b6040516001600160e01b031960e085901b1681526001600160a01b03928316600482015291166024820152604481018d90526001606482015260a06084820152600060a482015260c401600060405180830381600087803b15801561065a57600080fd5b505af115801561066e573d6000803e3d6000fd5b5050505060018060008e6001600160a01b03166001600160a01b031681526020019081526020016000208a6040516106a69190610e1d565b908152604051908190036020019020805491151560ff19909216919091179055896001600160a01b03808d16908e167fe68d769bd59bc4d3345007ce2ac2a2e7c824fe562b4dd8b2bd22294688c2a7f46106fe6108fb565b8d60405161070d929190610e74565b60405180910390a4505050505050505050505050565b61072b610905565b6102766000610a39565b61073d610905565b6107456102aa565b61027657610276610a89565b610759610905565b6001600160a01b0381166107be5760405162461bcd60e51b815260206004820152602660248201527f4f776e61626c653a206e6577206f776e657220697320746865207a65726f206160448201526564647265737360d01b6064820152608401610304565b6107c781610a39565b50565b60006107d533610278565b156107e7575060131936013560601c90565b503390565b905090565b3390565b6060816108195750506040805180820190915260018152600360fc1b602082015290565b8160005b8115610843578061082d81610ecc565b915061083c9050600a83610efd565b915061081d565b60008167ffffffffffffffff81111561085e5761085e610bb2565b6040519080825280601f01601f191660200182016040528015610888576020820181803683370190505b5090505b84156108f35761089d600183610f11565b91506108aa600a86610f28565b6108b5906030610f3c565b60f81b8183815181106108ca576108ca610f54565b60200101906001600160f81b031916908160001a9053506108ec600a86610efd565b945061088c565b949350505050565b60006107ec6107ca565b61090d6108fb565b6001600160a01b03166109286000546001600160a01b031690565b6001600160a01b0316146102765760405162461bcd60e51b815260206004820181905260248201527f4f776e61626c653a2063616c6c6572206973206e6f7420746865206f776e65726044820152606401610304565b610986610acd565b6000805460ff60a01b191690557f5db9ee0a495bf2e6ff9c91a7834c1ba4fdd244a5e8aa4e537bd38aeae4b073aa6109bc6108fb565b6040516001600160a01b03909116815260200160405180910390a1565b6109e16102aa565b156102765760405162461bcd60e51b815260206004820152601060248201526f14185d5cd8589b194e881c185d5cd95960821b6044820152606401610304565b600082610a2f868685610b18565b1495945050505050565b600080546001600160a01b038381166001600160a01b0319831681178455604051919092169283917f8be0079c531659141344cd1fd0a4f28419497f9722a3daafe3b4186f6b6457e09190a35050565b610a916109d9565b6000805460ff60a01b1916600160a01b1790557f62e78cea01bee320cd4e420270b5ea74000d11b0c9f74754ebdbfc544b05a2586109bc6108fb565b610ad56102aa565b6102765760405162461bcd60e51b815260206004820152601460248201527314185d5cd8589b194e881b9bdd081c185d5cd95960621b6044820152606401610304565b600081815b84811015610b5b57610b4782878784818110610b3b57610b3b610f54565b90506020020135610b64565b915080610b5381610ecc565b915050610b1d565b50949350505050565b6000818310610b80576000828152602084905260409020610b8f565b60008381526020839052604090205b9392505050565b80356001600160a01b0381168114610bad57600080fd5b919050565b634e487b7160e01b600052604160045260246000fd5b600082601f830112610bd957600080fd5b813567ffffffffffffffff80821115610bf457610bf4610bb2565b604051601f8301601f19908116603f01168101908282118183101715610c1c57610c1c610bb2565b81604052838152866020858801011115610c3557600080fd5b836020870160208301376000602085830101528094505050505092915050565b60008060408385031215610c6857600080fd5b610c7183610b96565b9150602083013567ffffffffffffffff811115610c8d57600080fd5b610c9985828601610bc8565b9150509250929050565b600080600060608486031215610cb857600080fd5b610cc184610b96565b95602085013595506040909401359392505050565b600060208284031215610ce857600080fd5b610b8f82610b96565b60008060008060008060a08789031215610d0a57600080fd5b610d1387610b96565b9550610d2160208801610b96565b945060408701359350606087013567ffffffffffffffff80821115610d4557600080fd5b610d518a838b01610bc8565b94506080890135915080821115610d6757600080fd5b818901915089601f830112610d7b57600080fd5b813581811115610d8a57600080fd5b8a60208260051b8501011115610d9f57600080fd5b6020830194508093505050509295509295509295565b60005b83811015610dd0578181015183820152602001610db8565b83811115610ddf576000848401525b50505050565b6bffffffffffffffffffffffff198360601b16815260008251610e0f816014850160208701610db5565b919091016014019392505050565b60008251610e2f818460208701610db5565b9190910192915050565b600060208284031215610e4b57600080fd5b81518015158114610b8f57600080fd5b600060208284031215610e6d57600080fd5b5051919050565b60018060a01b03831681526040602082015260008251806040840152610ea1816060850160208701610db5565b601f01601f1916919091016060019392505050565b634e487b7160e01b600052601160045260246000fd5b6000600019821415610ee057610ee0610eb6565b5060010190565b634e487b7160e01b600052601260045260246000fd5b600082610f0c57610f0c610ee7565b500490565b600082821015610f2357610f23610eb6565b500390565b600082610f3757610f37610ee7565b500690565b60008219821115610f4f57610f4f610eb6565b500190565b634e487b7160e01b600052603260045260246000fdfea2646970667358221220d778c91d2d908c32438e2f914d12a0b53e3ba4dbc2f8f2e944716590ddaa570864736f6c634300080b0033",
  "linkReferences": {},
  "deployedLinkReferences": {}
}