{
  "_format": "hh-sol-artifact-1",
  "contractName": "RootFactory",
  "sourceName": "contracts/Utils/RootFactory.sol",
  "abi": [
    {
      "inputs": [
        {
          "internalType": "address",
          "name": "_trustedForwarder",
          "type": "address"
        }
      ],
      "stateMutability": "nonpayable",
      "type": "constructor"
    },
    {
      "anonymous": false,
      "inputs": [
        {
          "indexed": false,
          "internalType": "uint8",
          "name": "version",
          "type": "uint8"
        }
      ],
      "name": "Initialized",
      "type": "event"
    },
    {
      "anonymous": false,
      "inputs": [
        {
          "indexed": true,
          "internalType": "address",
          "name": "creator",
          "type": "address"
        },
        {
          "indexed": true,
          "internalType": "enum RootFactory.NftStandard",
          "name": "standard",
          "type": "uint8"
        },
        {
          "indexed": false,
          "internalType": "address",
          "name": "project",
          "type": "address"
        },
        {
          "indexed": false,
          "internalType": "string",
          "name": "name",
          "type": "string"
        }
      ],
      "name": "NewProject",
      "type": "event"
    },
    {
      "anonymous": false,
      "inputs": [
        {
          "indexed": true,
          "internalType": "address",
          "name": "previousOwner",
          "type": "address"
        },
        {
          "indexed": true,
          "internalType": "address",
          "name": "newOwner",
          "type": "address"
        }
      ],
      "name": "OwnershipTransferred",
      "type": "event"
    },
    {
      "anonymous": false,
      "inputs": [
        {
          "indexed": false,
          "internalType": "address",
          "name": "account",
          "type": "address"
        }
      ],
      "name": "Paused",
      "type": "event"
    },
    {
      "anonymous": false,
      "inputs": [
        {
          "indexed": false,
          "internalType": "address",
          "name": "account",
          "type": "address"
        }
      ],
      "name": "Unpaused",
      "type": "event"
    },
    {
      "inputs": [],
      "name": "Root1155Beacon",
      "outputs": [
        {
          "internalType": "address",
          "name": "",
          "type": "address"
        }
      ],
      "stateMutability": "view",
      "type": "function"
    },
    {
      "inputs": [],
      "name": "Root721Beacon",
      "outputs": [
        {
          "internalType": "address",
          "name": "",
          "type": "address"
        }
      ],
      "stateMutability": "view",
      "type": "function"
    },
    {
      "inputs": [
        {
          "internalType": "string",
          "name": "name",
          "type": "string"
        }
      ],
      "name": "create1155Proxy",
      "outputs": [],
      "stateMutability": "nonpayable",
      "type": "function"
    },
    {
      "inputs": [
        {
          "internalType": "string",
          "name": "name",
          "type": "string"
        }
      ],
      "name": "create721Proxy",
      "outputs": [],
      "stateMutability": "nonpayable",
      "type": "function"
    },
    {
      "inputs": [],
      "name": "initialize",
      "outputs": [],
      "stateMutability": "nonpayable",
      "type": "function"
    },
    {
      "inputs": [
        {
          "internalType": "address",
          "name": "forwarder",
          "type": "address"
        }
      ],
      "name": "isTrustedForwarder",
      "outputs": [
        {
          "internalType": "bool",
          "name": "",
          "type": "bool"
        }
      ],
      "stateMutability": "view",
      "type": "function"
    },
    {
      "inputs": [],
      "name": "owner",
      "outputs": [
        {
          "internalType": "address",
          "name": "",
          "type": "address"
        }
      ],
      "stateMutability": "view",
      "type": "function"
    },
    {
      "inputs": [],
      "name": "paused",
      "outputs": [
        {
          "internalType": "bool",
          "name": "",
          "type": "bool"
        }
      ],
      "stateMutability": "view",
      "type": "function"
    },
    {
      "inputs": [],
      "name": "renounceOwnership",
      "outputs": [],
      "stateMutability": "nonpayable",
      "type": "function"
    },
    {
      "inputs": [],
      "name": "togglePause",
      "outputs": [],
      "stateMutability": "nonpayable",
      "type": "function"
    },
    {
      "inputs": [
        {
          "internalType": "address",
          "name": "newOwner",
          "type": "address"
        }
      ],
      "name": "transferOwnership",
      "outputs": [],
      "stateMutability": "nonpayable",
      "type": "function"
    },
    {
      "inputs": [
        {
          "internalType": "address",
          "name": "newBeacon",
          "type": "address"
        }
      ],
      "name": "update1155Beacon",
      "outputs": [],
      "stateMutability": "nonpayable",
      "type": "function"
    },
    {
      "inputs": [
        {
          "internalType": "address",
          "name": "newBeacon",
          "type": "address"
        }
      ],
      "name": "update721Beacon",
      "outputs": [],
      "stateMutability": "nonpayable",
      "type": "function"
    }
  ],
  "bytecode": "0x60a06040523480156200001157600080fd5b50604051620017d4380380620017d483398101604081905262000034916200030a565b6001600160a01b038116608052600054610100900460ff1615808015620000625750600054600160ff909116105b806200009257506200007f306200017860201b620006391760201c565b15801562000092575060005460ff166001145b620000fb5760405162461bcd60e51b815260206004820152602e60248201527f496e697469616c697a61626c653a20636f6e747261637420697320616c72656160448201526d191e481a5b9a5d1a585b1a5e995960921b60648201526084015b60405180910390fd5b6000805460ff1916600117905580156200011f576000805461ff0019166101001790555b6200012962000187565b801562000170576000805461ff0019169055604051600181527f7f26b83ff96e1f2b6a682f133852f6798a09c465da95921460cefb38474024989060200160405180910390a15b50506200033c565b6001600160a01b03163b151590565b600054610100900460ff16620001e35760405162461bcd60e51b815260206004820152602b6024820152600080516020620017b483398151915260448201526a6e697469616c697a696e6760a81b6064820152608401620000f2565b620001ed620001ef565b565b600054610100900460ff166200024b5760405162461bcd60e51b815260206004820152602b6024820152600080516020620017b483398151915260448201526a6e697469616c697a696e6760a81b6064820152608401620000f2565b620001ed620002596200025f565b6200027b565b600062000276620002cd60201b620006481760201c565b905090565b606580546001600160a01b038381166001600160a01b0319831681179093556040519116919082907f8be0079c531659141344cd1fd0a4f28419497f9722a3daafe3b4186f6b6457e090600090a35050565b6080516000906001600160a01b0316331415620002f1575060131936013560601c90565b620002766200030660201b620006721760201c565b3390565b6000602082840312156200031d57600080fd5b81516001600160a01b03811681146200033557600080fd5b9392505050565b60805161145c6200035860003960006103cc015261145c6000f3fe60806040523480156200001157600080fd5b5060043610620000ce5760003560e01c80638129fc1c11620000865780638129fc1c14620001725780638da5cb5b146200017c578063a037f3c8146200018e578063c4ae316814620001a5578063dcb7dad114620001af578063e4c6d1e614620001c6578063f2fde38b14620001da57600080fd5b806238735014620000d35780630ee2e70d14620000ec5780631a2d2a55146200011d578063572b6c0514620001345780635c975abb146200015c578063715018a61462000168575b600080fd5b620000ea620000e436600462000919565b620001f1565b005b60c95462000100906001600160a01b031681565b6040516001600160a01b0390911681526020015b60405180910390f35b620000ea6200012e36600462000919565b62000304565b6200014b62000145366004620009d4565b620003ca565b604051901515815260200162000114565b60975460ff166200014b565b620000ea620003fc565b620000ea62000414565b6065546001600160a01b031662000100565b620000ea6200019f366004620009d4565b6200053b565b620000ea62000567565b620000ea620001c0366004620009d4565b62000591565b60ca5462000100906001600160a01b031681565b620000ea620001eb366004620009d4565b620005bd565b620001fb62000676565b60c9546040516000916001600160a01b0316906200021e90849060240162000a67565b60408051601f198184030181529190526020810180516001600160e01b0316631ec5a31160e31b17905262000252620006be565b6040516020016200026592919062000a7c565b6040516020818303038152906040526040516200028290620008f5565b6200028f92919062000ab5565b604051809103906000f080158015620002ac573d6000803e3d6000fd5b50905060005b620002bc620006be565b6001600160a01b03167fe1cf42f116d45406155e739c873e2b8a6c382babae99464e2390296dc4a5bf1b8385604051620002f892919062000ab5565b60405180910390a35050565b6200030e62000676565b60ca546040516000916001600160a01b0316906200033190849060240162000a67565b60408051601f198184030181529190526020810180516001600160e01b0316631ec5a31160e31b17905262000365620006be565b6040516020016200037892919062000a7c565b6040516020818303038152906040526040516200039590620008f5565b620003a292919062000ab5565b604051809103906000f080158015620003bf573d6000803e3d6000fd5b5090506001620002b2565b7f00000000000000000000000000000000000000000000000000000000000000006001600160a01b0390811691161490565b62000406620006ca565b62000412600062000748565b565b600054610100900460ff1615808015620004355750600054600160ff909116105b806200045a5750620004473062000639565b1580156200045a575060005460ff166001145b620004c35760405162461bcd60e51b815260206004820152602e60248201527f496e697469616c697a61626c653a20636f6e747261637420697320616c72656160448201526d191e481a5b9a5d1a585b1a5e995960921b60648201526084015b60405180910390fd5b6000805460ff191660011790558015620004e7576000805461ff0019166101001790555b620004f16200079a565b801562000538576000805461ff0019169055604051600181527f7f26b83ff96e1f2b6a682f133852f6798a09c465da95921460cefb38474024989060200160405180910390a15b50565b62000545620006ca565b60c980546001600160a01b0319166001600160a01b0392909216919091179055565b62000571620006ca565b60975460ff1615620005875762000412620007ce565b620004126200082a565b6200059b620006ca565b60ca80546001600160a01b0319166001600160a01b0392909216919091179055565b620005c7620006ca565b6001600160a01b0381166200062e5760405162461bcd60e51b815260206004820152602660248201527f4f776e61626c653a206e6577206f776e657220697320746865207a65726f206160448201526564647265737360d01b6064820152608401620004ba565b620005388162000748565b6001600160a01b03163b151590565b60006200065533620003ca565b1562000668575060131936013560601c90565b503390565b905090565b3390565b60975460ff1615620004125760405162461bcd60e51b815260206004820152601060248201526f14185d5cd8589b194e881c185d5cd95960821b6044820152606401620004ba565b60006200066d62000648565b620006d4620006be565b6001600160a01b0316620006f06065546001600160a01b031690565b6001600160a01b031614620004125760405162461bcd60e51b815260206004820181905260248201527f4f776e61626c653a2063616c6c6572206973206e6f7420746865206f776e65726044820152606401620004ba565b606580546001600160a01b038381166001600160a01b0319831681179093556040519116919082907f8be0079c531659141344cd1fd0a4f28419497f9722a3daafe3b4186f6b6457e090600090a35050565b600054610100900460ff16620007c45760405162461bcd60e51b8152600401620004ba9062000ae3565b620004126200086c565b620007d8620008aa565b6097805460ff191690557f5db9ee0a495bf2e6ff9c91a7834c1ba4fdd244a5e8aa4e537bd38aeae4b073aa6200080d620006be565b6040516001600160a01b03909116815260200160405180910390a1565b6200083462000676565b6097805460ff191660011790557f62e78cea01bee320cd4e420270b5ea74000d11b0c9f74754ebdbfc544b05a2586200080d620006be565b600054610100900460ff16620008965760405162461bcd60e51b8152600401620004ba9062000ae3565b62000412620008a4620006be565b62000748565b60975460ff16620004125760405162461bcd60e51b815260206004820152601460248201527314185d5cd8589b194e881b9bdd081c185d5cd95960621b6044820152606401620004ba565b6108f88062000b2f83390190565b634e487b7160e01b600052604160045260246000fd5b6000602082840312156200092c57600080fd5b813567ffffffffffffffff808211156200094557600080fd5b818401915084601f8301126200095a57600080fd5b8135818111156200096f576200096f62000903565b604051601f8201601f19908116603f011681019083821181831017156200099a576200099a62000903565b81604052828152876020848701011115620009b457600080fd5b826020860160208301376000928101602001929092525095945050505050565b600060208284031215620009e757600080fd5b81356001600160a01b0381168114620009ff57600080fd5b9392505050565b60005b8381101562000a2357818101518382015260200162000a09565b8381111562000a33576000848401525b50505050565b6000815180845262000a5381602086016020860162000a06565b601f01601f19169290920160200192915050565b602081526000620009ff602083018462000a39565b6000835162000a9081846020880162000a06565b60609390931b6bffffffffffffffffffffffff19169190920190815260140192915050565b6001600160a01b038316815260406020820181905260009062000adb9083018462000a39565b949350505050565b6020808252602b908201527f496e697469616c697a61626c653a20636f6e7472616374206973206e6f74206960408201526a6e697469616c697a696e6760a81b60608201526080019056fe60806040526040516108f83803806108f883398101604081905261002291610456565b61002e82826000610035565b5050610580565b61003e83610100565b6040516001600160a01b038416907f1cf3b03a6cf19fa2baba4df148e9dcabedea7f8a5c07840e207e5c089be95d3e90600090a260008251118061007f5750805b156100fb576100f9836001600160a01b0316635c60da1b6040518163ffffffff1660e01b8152600401602060405180830381865afa1580156100c5573d6000803e3d6000fd5b505050506040513d601f19601f820116820180604052508101906100e99190610516565b836102a360201b6100291760201c565b505b505050565b610113816102cf60201b6100551760201c565b6101725760405162461bcd60e51b815260206004820152602560248201527f455243313936373a206e657720626561636f6e206973206e6f74206120636f6e6044820152641d1c9858dd60da1b60648201526084015b60405180910390fd5b6101e6816001600160a01b0316635c60da1b6040518163ffffffff1660e01b8152600401602060405180830381865afa1580156101b3573d6000803e3d6000fd5b505050506040513d601f19601f820116820180604052508101906101d79190610516565b6102cf60201b6100551760201c565b61024b5760405162461bcd60e51b815260206004820152603060248201527f455243313936373a20626561636f6e20696d706c656d656e746174696f6e206960448201526f1cc81b9bdd08184818dbdb9d1c9858dd60821b6064820152608401610169565b806102827fa3f0ad74e5423aebfd80d3ef4346578335a9a72aeaee59ff6cb3582b35133d5060001b6102de60201b6100641760201c565b80546001600160a01b0319166001600160a01b039290921691909117905550565b60606102c883836040518060600160405280602781526020016108d1602791396102e1565b9392505050565b6001600160a01b03163b151590565b90565b60606001600160a01b0384163b6103495760405162461bcd60e51b815260206004820152602660248201527f416464726573733a2064656c65676174652063616c6c20746f206e6f6e2d636f6044820152651b9d1c9858dd60d21b6064820152608401610169565b600080856001600160a01b0316856040516103649190610531565b600060405180830381855af49150503d806000811461039f576040519150601f19603f3d011682016040523d82523d6000602084013e6103a4565b606091505b5090925090506103b58282866103bf565b9695505050505050565b606083156103ce5750816102c8565b8251156103de5782518084602001fd5b8160405162461bcd60e51b8152600401610169919061054d565b80516001600160a01b038116811461040f57600080fd5b919050565b634e487b7160e01b600052604160045260246000fd5b60005b8381101561044557818101518382015260200161042d565b838111156100f95750506000910152565b6000806040838503121561046957600080fd5b610472836103f8565b60208401519092506001600160401b038082111561048f57600080fd5b818501915085601f8301126104a357600080fd5b8151818111156104b5576104b5610414565b604051601f8201601f19908116603f011681019083821181831017156104dd576104dd610414565b816040528281528860208487010111156104f657600080fd5b61050783602083016020880161042a565b80955050505050509250929050565b60006020828403121561052857600080fd5b6102c8826103f8565b6000825161054381846020870161042a565b9190910192915050565b602081526000825180602084015261056c81604085016020870161042a565b601f01601f19169190910160400192915050565b6103428061058f6000396000f3fe60806040523661001357610011610017565b005b6100115b610027610022610067565b610100565b565b606061004e83836040518060600160405280602781526020016102e660279139610124565b9392505050565b6001600160a01b03163b151590565b90565b600061009a7fa3f0ad74e5423aebfd80d3ef4346578335a9a72aeaee59ff6cb3582b35133d50546001600160a01b031690565b6001600160a01b0316635c60da1b6040518163ffffffff1660e01b8152600401602060405180830381865afa1580156100d7573d6000803e3d6000fd5b505050506040513d601f19601f820116820180604052508101906100fb919061023d565b905090565b3660008037600080366000845af43d6000803e80801561011f573d6000f35b3d6000fd5b606061012f84610055565b61018f5760405162461bcd60e51b815260206004820152602660248201527f416464726573733a2064656c65676174652063616c6c20746f206e6f6e2d636f6044820152651b9d1c9858dd60d21b60648201526084015b60405180910390fd5b600080856001600160a01b0316856040516101aa9190610296565b600060405180830381855af49150503d80600081146101e5576040519150601f19603f3d011682016040523d82523d6000602084013e6101ea565b606091505b50915091506101fa828286610204565b9695505050505050565b6060831561021357508161004e565b8251156102235782518084602001fd5b8160405162461bcd60e51b815260040161018691906102b2565b60006020828403121561024f57600080fd5b81516001600160a01b038116811461004e57600080fd5b60005b83811015610281578181015183820152602001610269565b83811115610290576000848401525b50505050565b600082516102a8818460208701610266565b9190910192915050565b60208152600082518060208401526102d1816040850160208701610266565b601f01601f1916919091016040019291505056fe416464726573733a206c6f772d6c6576656c2064656c65676174652063616c6c206661696c6564a264697066735822122084a25cf2382cf3c16bec751a7ec443341a131973a590b914eba4387a912fa86664736f6c634300080b0033416464726573733a206c6f772d6c6576656c2064656c65676174652063616c6c206661696c6564a264697066735822122000ab4fdb5dda9bbb893c3912b1c3d85373c81fae6f8210a1cbff4f8f8437c98d64736f6c634300080b0033496e697469616c697a61626c653a20636f6e7472616374206973206e6f742069",
  "linkReferences": {},
  "deployedLinkReferences": {}
}