{
  "_format": "hh-sol-artifact-1",
  "contractName": "RootCollectible",
  "sourceName": "contracts/ERC1155/Root1155NFT.sol",
  "abi": [
    {
      "inputs": [
        {
          "internalType": "address",
          "name": "_trustedForwarder",
          "type": "address"
        }
      ],
      "stateMutability": "nonpayable",
      "type": "constructor"
    },
    {
      "anonymous": false,
      "inputs": [
        {
          "indexed": true,
          "internalType": "address",
          "name": "account",
          "type": "address"
        },
        {
          "indexed": true,
          "internalType": "address",
          "name": "operator",
          "type": "address"
        },
        {
          "indexed": false,
          "internalType": "bool",
          "name": "approved",
          "type": "bool"
        }
      ],
      "name": "ApprovalForAll",
      "type": "event"
    },
    {
      "anonymous": false,
      "inputs": [
        {
          "indexed": false,
          "internalType": "uint8",
          "name": "version",
          "type": "uint8"
        }
      ],
      "name": "Initialized",
      "type": "event"
    },
    {
      "anonymous": false,
      "inputs": [
        {
          "indexed": true,
          "internalType": "address",
          "name": "previousOwner",
          "type": "address"
        },
        {
          "indexed": true,
          "internalType": "address",
          "name": "newOwner",
          "type": "address"
        }
      ],
      "name": "OwnershipTransferred",
      "type": "event"
    },
    {
      "anonymous": false,
      "inputs": [
        {
          "indexed": true,
          "internalType": "address",
          "name": "operator",
          "type": "address"
        },
        {
          "indexed": true,
          "internalType": "address",
          "name": "from",
          "type": "address"
        },
        {
          "indexed": true,
          "internalType": "address",
          "name": "to",
          "type": "address"
        },
        {
          "indexed": false,
          "internalType": "uint256[]",
          "name": "ids",
          "type": "uint256[]"
        },
        {
          "indexed": false,
          "internalType": "uint256[]",
          "name": "values",
          "type": "uint256[]"
        }
      ],
      "name": "TransferBatch",
      "type": "event"
    },
    {
      "anonymous": false,
      "inputs": [
        {
          "indexed": true,
          "internalType": "address",
          "name": "operator",
          "type": "address"
        },
        {
          "indexed": true,
          "internalType": "address",
          "name": "from",
          "type": "address"
        },
        {
          "indexed": true,
          "internalType": "address",
          "name": "to",
          "type": "address"
        },
        {
          "indexed": false,
          "internalType": "uint256",
          "name": "id",
          "type": "uint256"
        },
        {
          "indexed": false,
          "internalType": "uint256",
          "name": "value",
          "type": "uint256"
        }
      ],
      "name": "TransferSingle",
      "type": "event"
    },
    {
      "anonymous": false,
      "inputs": [
        {
          "indexed": false,
          "internalType": "string",
          "name": "value",
          "type": "string"
        },
        {
          "indexed": true,
          "internalType": "uint256",
          "name": "id",
          "type": "uint256"
        }
      ],
      "name": "URI",
      "type": "event"
    },
    {
      "inputs": [
        {
          "internalType": "address",
          "name": "account",
          "type": "address"
        },
        {
          "internalType": "uint256",
          "name": "id",
          "type": "uint256"
        }
      ],
      "name": "balanceOf",
      "outputs": [
        {
          "internalType": "uint256",
          "name": "",
          "type": "uint256"
        }
      ],
      "stateMutability": "view",
      "type": "function"
    },
    {
      "inputs": [
        {
          "internalType": "address[]",
          "name": "accounts",
          "type": "address[]"
        },
        {
          "internalType": "uint256[]",
          "name": "ids",
          "type": "uint256[]"
        }
      ],
      "name": "balanceOfBatch",
      "outputs": [
        {
          "internalType": "uint256[]",
          "name": "",
          "type": "uint256[]"
        }
      ],
      "stateMutability": "view",
      "type": "function"
    },
    {
      "inputs": [
        {
          "internalType": "address",
          "name": "account",
          "type": "address"
        },
        {
          "internalType": "uint256",
          "name": "id",
          "type": "uint256"
        },
        {
          "internalType": "uint256",
          "name": "value",
          "type": "uint256"
        }
      ],
      "name": "burn",
      "outputs": [],
      "stateMutability": "nonpayable",
      "type": "function"
    },
    {
      "inputs": [
        {
          "internalType": "address",
          "name": "account",
          "type": "address"
        },
        {
          "internalType": "uint256[]",
          "name": "ids",
          "type": "uint256[]"
        },
        {
          "internalType": "uint256[]",
          "name": "values",
          "type": "uint256[]"
        }
      ],
      "name": "burnBatch",
      "outputs": [],
      "stateMutability": "nonpayable",
      "type": "function"
    },
    {
      "inputs": [
        {
          "internalType": "uint256",
          "name": "_tokenId",
          "type": "uint256"
        },
        {
          "internalType": "uint256",
          "name": "_qty",
          "type": "uint256"
        },
        {
          "internalType": "string",
          "name": "_uri",
          "type": "string"
        }
      ],
      "name": "createAndSetUri",
      "outputs": [],
      "stateMutability": "nonpayable",
      "type": "function"
    },
    {
      "inputs": [
        {
          "internalType": "uint256",
          "name": "_tokenId",
          "type": "uint256"
        },
        {
          "internalType": "uint256",
          "name": "_qty",
          "type": "uint256"
        },
        {
          "internalType": "string",
          "name": "_uri",
          "type": "string"
        },
        {
          "internalType": "address",
          "name": "_operator",
          "type": "address"
        }
      ],
      "name": "createSetUriAndApproval",
      "outputs": [],
      "stateMutability": "nonpayable",
      "type": "function"
    },
    {
      "inputs": [
        {
          "internalType": "address",
          "name": "_to",
          "type": "address"
        },
        {
          "internalType": "uint256",
          "name": "_id",
          "type": "uint256"
        },
        {
          "internalType": "uint256",
          "name": "_qty",
          "type": "uint256"
        }
      ],
      "name": "createTokens",
      "outputs": [],
      "stateMutability": "nonpayable",
      "type": "function"
    },
    {
      "inputs": [
        {
          "internalType": "string",
          "name": "_name",
          "type": "string"
        }
      ],
      "name": "initialize",
      "outputs": [],
      "stateMutability": "nonpayable",
      "type": "function"
    },
    {
      "inputs": [
        {
          "internalType": "address",
          "name": "account",
          "type": "address"
        },
        {
          "internalType": "address",
          "name": "operator",
          "type": "address"
        }
      ],
      "name": "isApprovedForAll",
      "outputs": [
        {
          "internalType": "bool",
          "name": "",
          "type": "bool"
        }
      ],
      "stateMutability": "view",
      "type": "function"
    },
    {
      "inputs": [
        {
          "internalType": "address",
          "name": "forwarder",
          "type": "address"
        }
      ],
      "name": "isTrustedForwarder",
      "outputs": [
        {
          "internalType": "bool",
          "name": "",
          "type": "bool"
        }
      ],
      "stateMutability": "view",
      "type": "function"
    },
    {
      "inputs": [],
      "name": "name",
      "outputs": [
        {
          "internalType": "string",
          "name": "",
          "type": "string"
        }
      ],
      "stateMutability": "view",
      "type": "function"
    },
    {
      "inputs": [],
      "name": "owner",
      "outputs": [
        {
          "internalType": "address",
          "name": "",
          "type": "address"
        }
      ],
      "stateMutability": "view",
      "type": "function"
    },
    {
      "inputs": [],
      "name": "renounceOwnership",
      "outputs": [],
      "stateMutability": "nonpayable",
      "type": "function"
    },
    {
      "inputs": [],
      "name": "resetDefault",
      "outputs": [],
      "stateMutability": "nonpayable",
      "type": "function"
    },
    {
      "inputs": [
        {
          "internalType": "uint256[]",
          "name": "_tokenIds",
          "type": "uint256[]"
        }
      ],
      "name": "resetRoyalty",
      "outputs": [],
      "stateMutability": "nonpayable",
      "type": "function"
    },
    {
      "inputs": [
        {
          "internalType": "uint256",
          "name": "_tokenId",
          "type": "uint256"
        },
        {
          "internalType": "uint256",
          "name": "_salePrice",
          "type": "uint256"
        }
      ],
      "name": "royaltyInfo",
      "outputs": [
        {
          "internalType": "address",
          "name": "",
          "type": "address"
        },
        {
          "internalType": "uint256",
          "name": "",
          "type": "uint256"
        }
      ],
      "stateMutability": "view",
      "type": "function"
    },
    {
      "inputs": [
        {
          "internalType": "address",
          "name": "from",
          "type": "address"
        },
        {
          "internalType": "address",
          "name": "to",
          "type": "address"
        },
        {
          "internalType": "uint256[]",
          "name": "ids",
          "type": "uint256[]"
        },
        {
          "internalType": "uint256[]",
          "name": "amounts",
          "type": "uint256[]"
        },
        {
          "internalType": "bytes",
          "name": "data",
          "type": "bytes"
        }
      ],
      "name": "safeBatchTransferFrom",
      "outputs": [],
      "stateMutability": "nonpayable",
      "type": "function"
    },
    {
      "inputs": [
        {
          "internalType": "address",
          "name": "from",
          "type": "address"
        },
        {
          "internalType": "address",
          "name": "to",
          "type": "address"
        },
        {
          "internalType": "uint256",
          "name": "id",
          "type": "uint256"
        },
        {
          "internalType": "uint256",
          "name": "amount",
          "type": "uint256"
        },
        {
          "internalType": "bytes",
          "name": "data",
          "type": "bytes"
        }
      ],
      "name": "safeTransferFrom",
      "outputs": [],
      "stateMutability": "nonpayable",
      "type": "function"
    },
    {
      "inputs": [
        {
          "internalType": "address",
          "name": "operator",
          "type": "address"
        },
        {
          "internalType": "bool",
          "name": "approved",
          "type": "bool"
        }
      ],
      "name": "setApprovalForAll",
      "outputs": [],
      "stateMutability": "nonpayable",
      "type": "function"
    },
    {
      "inputs": [
        {
          "internalType": "address",
          "name": "_receiver",
          "type": "address"
        },
        {
          "internalType": "uint96",
          "name": "_numerator",
          "type": "uint96"
        }
      ],
      "name": "setDefault",
      "outputs": [],
      "stateMutability": "nonpayable",
      "type": "function"
    },
    {
      "inputs": [
        {
          "internalType": "uint256[]",
          "name": "_tokenIds",
          "type": "uint256[]"
        },
        {
          "internalType": "address",
          "name": "_receiver",
          "type": "address"
        },
        {
          "internalType": "uint96",
          "name": "_numerator",
          "type": "uint96"
        }
      ],
      "name": "setRoyalty",
      "outputs": [],
      "stateMutability": "nonpayable",
      "type": "function"
    },
    {
      "inputs": [
        {
          "internalType": "uint256",
          "name": "_tokenId",
          "type": "uint256"
        },
        {
          "internalType": "string",
          "name": "_tokenURI",
          "type": "string"
        }
      ],
      "name": "setURI",
      "outputs": [],
      "stateMutability": "nonpayable",
      "type": "function"
    },
    {
      "inputs": [
        {
          "internalType": "bytes4",
          "name": "interfaceId",
          "type": "bytes4"
        }
      ],
      "name": "supportsInterface",
      "outputs": [
        {
          "internalType": "bool",
          "name": "",
          "type": "bool"
        }
      ],
      "stateMutability": "view",
      "type": "function"
    },
    {
      "inputs": [],
      "name": "symbol",
      "outputs": [
        {
          "internalType": "string",
          "name": "",
          "type": "string"
        }
      ],
      "stateMutability": "view",
      "type": "function"
    },
    {
      "inputs": [
        {
          "internalType": "address",
          "name": "newOwner",
          "type": "address"
        }
      ],
      "name": "transferOwnership",
      "outputs": [],
      "stateMutability": "nonpayable",
      "type": "function"
    },
    {
      "inputs": [
        {
          "internalType": "uint256",
          "name": "tokenId",
          "type": "uint256"
        }
      ],
      "name": "uri",
      "outputs": [
        {
          "internalType": "string",
          "name": "",
          "type": "string"
        }
      ],
      "stateMutability": "view",
      "type": "function"
    }
  ],
  "bytecode": "0x60a06040523480156200001157600080fd5b506040516200304538038062003045833981016040819052620000349162000532565b6001600160a01b038116608052600054610100900460ff1615808015620000625750600054600160ff909116105b806200009257506200007f30620001fa60201b62000cc91760201c565b15801562000092575060005460ff166001145b620000fb5760405162461bcd60e51b815260206004820152602e60248201527f496e697469616c697a61626c653a20636f6e747261637420697320616c72656160448201526d191e481a5b9a5d1a585b1a5e995960921b60648201526084015b60405180910390fd5b6000805460ff1916600117905580156200011f576000805461ff0019166101001790555b6040805180820190915260108082526f524f4f5420436f6c6c65637469626c6560801b60209092019182526200015991610160916200048c565b50604080518082019091526004808252631493d3d560e21b60209092019182526200018891610161916200048c565b506200019362000209565b61015f805460ff19166001179055620001ab62000271565b8015620001f2576000805461ff0019169055604051600181527f7f26b83ff96e1f2b6a682f133852f6798a09c465da95921460cefb38474024989060200160405180910390a15b5050620005a1565b6001600160a01b03163b151590565b600054610100900460ff16620002655760405162461bcd60e51b815260206004820152602b60248201526000805160206200302583398151915260448201526a6e697469616c697a696e6760a81b6064820152608401620000f2565b6200026f620002d7565b565b600054610100900460ff16620002cd5760405162461bcd60e51b815260206004820152602b60248201526000805160206200302583398151915260448201526a6e697469616c697a696e6760a81b6064820152608401620000f2565b6200026f62000356565b600054610100900460ff16620003335760405162461bcd60e51b815260206004820152602b60248201526000805160206200302583398151915260448201526a6e697469616c697a696e6760a81b6064820152608401620000f2565b60408051602081019182905260009081905262000353916097916200048c565b50565b600054610100900460ff16620003b25760405162461bcd60e51b815260206004820152602b60248201526000805160206200302583398151915260448201526a6e697469616c697a696e6760a81b6064820152608401620000f2565b6200026f620003c0620003c6565b620003fc565b61015f5460009060ff16620003e2575060131936013560601c90565b620003f76200044f60201b62000cd81760201c565b905090565b61012d80546001600160a01b038381166001600160a01b0319831681179093556040519116919082907f8be0079c531659141344cd1fd0a4f28419497f9722a3daafe3b4186f6b6457e090600090a35050565b6080516000906001600160a01b031633141562000473575060131936013560601c90565b620003f76200048860201b62000d021760201c565b3390565b8280546200049a9062000564565b90600052602060002090601f016020900481019282620004be576000855562000509565b82601f10620004d957805160ff191683800117855562000509565b8280016001018555821562000509579182015b8281111562000509578251825591602001919060010190620004ec565b50620005179291506200051b565b5090565b5b808211156200051757600081556001016200051c565b6000602082840312156200054557600080fd5b81516001600160a01b03811681146200055d57600080fd5b9392505050565b600181811c908216806200057957607f821691505b602082108114156200059b57634e487b7160e01b600052602260045260246000fd5b50919050565b608051612a68620005bd60003960006108b90152612a686000f3fe608060405234801561001057600080fd5b506004361061016d5760003560e01c8063862440e2116100ce578063b8ca1ca311610087578063b8ca1ca314610321578063e840902414610329578063e985e9c51461033c578063f242432a14610378578063f2fde38b1461038b578063f5298aca1461039e578063f62d1888146103b157600080fd5b8063862440e2146102b15780638da5cb5b146102c457806390cb4854146102e057806395d89b41146102f3578063a22cb465146102fb578063aaad11f31461030e57600080fd5b80632eb2c2d61161012b5780632eb2c2d61461022a5780633273b0841461023d578063376ffdf4146102505780634e1273f414610263578063572b6c05146102835780636b20c45414610296578063715018a6146102a957600080fd5b8062fdd58e1461017257806301ffc9a71461019857806306fdde03146101bb5780630e89341c146101d05780631e6c36c1146101e35780632a55205a146101f8575b600080fd5b610185610180366004611c3b565b6103c4565b6040519081526020015b60405180910390f35b6101ab6101a6366004611c7b565b61045c565b604051901515815260200161018f565b6101c361046d565b60405161018f9190611cf0565b6101c36101de366004611d03565b6104fc565b6101f66101f1366004611dd1565b6105dc565b005b61020b610206366004611e20565b610605565b604080516001600160a01b03909316835260208301919091520161018f565b6101f6610238366004611ed6565b6106b3565b6101f661024b366004611f7f565b610711565b6101f661025e36600461203a565b610746565b610276610271366004612093565b61078e565b60405161018f9190612198565b6101ab6102913660046121ab565b6108b7565b6101f66102a43660046121c6565b6108e9565b6101f661093e565b6101f66102bf36600461222f565b610952565b61012d546040516001600160a01b03909116815260200161018f565b6101f66102ee36600461226b565b610968565b6101c361098b565b6101f661030936600461229e565b610999565b6101f661031c3660046122da565b6109ab565b6101f66109fd565b6101f661033736600461231b565b610a0f565b6101ab61034a36600461234e565b6001600160a01b03918216600090815260666020908152604080832093909416825291909152205460ff1690565b6101f6610386366004612378565b610a21565b6101f66103993660046121ab565b610a78565b6101f66103ac36600461226b565b610af1565b6101f66103bf3660046123dc565b610b59565b60006001600160a01b0383166104345760405162461bcd60e51b815260206004820152602a60248201527f455243313135353a2061646472657373207a65726f206973206e6f742061207660448201526930b634b21037bbb732b960b11b60648201526084015b60405180910390fd5b5060009081526065602090815260408083206001600160a01b03949094168352929052205490565b600061046782610d06565b92915050565b610160805461047b90612418565b80601f01602080910402602001604051908101604052809291908181526020018280546104a790612418565b80156104f45780601f106104c9576101008083540402835291602001916104f4565b820191906000526020600020905b8154815290600101906020018083116104d757829003601f168201915b505050505081565b60008181526098602052604081208054606092919061051a90612418565b80601f016020809104026020016040519081016040528092919081815260200182805461054690612418565b80156105935780601f1061056857610100808354040283529160200191610593565b820191906000526020600020905b81548152906001019060200180831161057657829003601f168201915b5050505050905060008151116105b1576105ac83610d2b565b6105d5565b6097816040516020016105c592919061246f565b6040516020818303038152906040525b9392505050565b6105e4610dbf565b6105f66105ef610e39565b8484610968565b6106008382610952565b505050565b600082815260ca602090815260408083208151808301909252546001600160a01b038116808352600160a01b9091046001600160601b031692820192909252829161067a57506040805180820190915260c9546001600160a01b0381168252600160a01b90046001600160601b031660208201525b602081015160009061271090610699906001600160601b03168761252c565b6106a3919061254b565b91519350909150505b9250929050565b6106bb610e39565b6001600160a01b0316856001600160a01b031614806106e157506106e18561034a610e39565b6106fd5760405162461bcd60e51b815260040161042b9061256d565b61070a8585858585610e5c565b5050505050565b610719610dbf565b61072b610724610e39565b8585610968565b6107358483610952565b610740816001610999565b50505050565b61074e610dbf565b60005b8381101561070a5761077c85858381811061076e5761076e6125bc565b905060200201358484611006565b80610786816125d2565b915050610751565b606081518351146107f35760405162461bcd60e51b815260206004820152602960248201527f455243313135353a206163636f756e747320616e6420696473206c656e677468604482015268040dad2e6dac2e8c6d60bb1b606482015260840161042b565b600083516001600160401b0381111561080e5761080e611d1c565b604051908082528060200260200182016040528015610837578160200160208202803683370190505b50905060005b84518110156108af5761088285828151811061085b5761085b6125bc565b6020026020010151858381518110610875576108756125bc565b60200260200101516103c4565b828281518110610894576108946125bc565b60209081029190910101526108a8816125d2565b905061083d565b509392505050565b7f00000000000000000000000000000000000000000000000000000000000000006001600160a01b0390811691161490565b6108f1610e39565b6001600160a01b0316836001600160a01b0316148061091757506109178361034a610e39565b6109335760405162461bcd60e51b815260040161042b906125ed565b6106008383836110d1565b610946610dbf565b6109506000611268565b565b61095a610dbf565b61096482826112bb565b5050565b610970610dbf565b6106008383836040518060200160405280600081525061131f565b610161805461047b90612418565b6109646109a4610e39565b838361142e565b6109b3610dbf565b60005b81811015610600576109eb8383838181106109d3576109d36125bc565b90506020020135600090815260ca6020526040812055565b806109f5816125d2565b9150506109b6565b610a05610dbf565b610950600060c955565b610a17610dbf565b610964828261150f565b610a29610e39565b6001600160a01b0316856001600160a01b03161480610a4f5750610a4f8561034a610e39565b610a6b5760405162461bcd60e51b815260040161042b9061256d565b61070a85858585856115c5565b610a80610dbf565b6001600160a01b038116610ae55760405162461bcd60e51b815260206004820152602660248201527f4f776e61626c653a206e6577206f776e657220697320746865207a65726f206160448201526564647265737360d01b606482015260840161042b565b610aee81611268565b50565b610af9610e39565b6001600160a01b0316836001600160a01b03161480610b1f5750610b1f8361034a610e39565b610b3b5760405162461bcd60e51b815260040161042b906125ed565b610b468383836116ec565b50600090815260ca602052604081205550565b600054610100900460ff1615808015610b795750600054600160ff909116105b80610b9a5750610b8830610cc9565b158015610b9a575060005460ff166001145b610bfd5760405162461bcd60e51b815260206004820152602e60248201527f496e697469616c697a61626c653a20636f6e747261637420697320616c72656160448201526d191e481a5b9a5d1a585b1a5e995960921b606482015260840161042b565b6000805460ff191660011790558015610c20576000805461ff0019166101001790555b8151610c3490610160906020850190611b86565b50604080518082019091526004808252631493d3d560e21b6020909201918252610c619161016191611b86565b50610c6a6117ec565b610c7261181b565b61015f805460ff191660011790558015610964576000805461ff0019169055604051600181527f7f26b83ff96e1f2b6a682f133852f6798a09c465da95921460cefb38474024989060200160405180910390a15050565b6001600160a01b03163b151590565b6000610ce3336108b7565b15610cf5575060131936013560601c90565b503390565b905090565b90565b3390565b60006001600160e01b0319821663152a902d60e11b148061046757506104678261184a565b606060678054610d3a90612418565b80601f0160208091040260200160405190810160405280929190818152602001828054610d6690612418565b8015610db35780601f10610d8857610100808354040283529160200191610db3565b820191906000526020600020905b815481529060010190602001808311610d9657829003601f168201915b50505050509050919050565b610dc7610e39565b6001600160a01b0316610de361012d546001600160a01b031690565b6001600160a01b0316146109505760405162461bcd60e51b815260206004820181905260248201527f4f776e61626c653a2063616c6c6572206973206e6f7420746865206f776e6572604482015260640161042b565b61015f5460009060ff16610e54575060131936013560601c90565b610cfa610cd8565b8151835114610e7d5760405162461bcd60e51b815260040161042b90612636565b6001600160a01b038416610ea35760405162461bcd60e51b815260040161042b9061267e565b6000610ead610e39565b905060005b8451811015610f98576000858281518110610ecf57610ecf6125bc565b602002602001015190506000858381518110610eed57610eed6125bc565b60209081029190910181015160008481526065835260408082206001600160a01b038e168352909352919091205490915081811015610f3e5760405162461bcd60e51b815260040161042b906126c3565b60008381526065602090815260408083206001600160a01b038e8116855292528083208585039055908b16825281208054849290610f7d90849061270d565b9250508190555050505080610f91906125d2565b9050610eb2565b50846001600160a01b0316866001600160a01b0316826001600160a01b03167f4a39dc06d4c0dbc64b70af90fd698a233a518aa5d07e595d983b8c0526c8f7fb8787604051610fe8929190612725565b60405180910390a4610ffe81878787878761189a565b505050505050565b6127106001600160601b03821611156110315760405162461bcd60e51b815260040161042b9061274a565b6001600160a01b0382166110875760405162461bcd60e51b815260206004820152601b60248201527f455243323938313a20496e76616c696420706172616d65746572730000000000604482015260640161042b565b6040805180820182526001600160a01b0393841681526001600160601b039283166020808301918252600096875260ca90529190942093519051909116600160a01b029116179055565b6001600160a01b0383166110f75760405162461bcd60e51b815260040161042b90612794565b80518251146111185760405162461bcd60e51b815260040161042b90612636565b6000611122610e39565b604080516020810190915260009052905060005b83518110156111fb576000848281518110611153576111536125bc565b602002602001015190506000848381518110611171576111716125bc565b60209081029190910181015160008481526065835260408082206001600160a01b038c1683529093529190912054909150818110156111c25760405162461bcd60e51b815260040161042b906127d7565b60009283526065602090815260408085206001600160a01b038b16865290915290922091039055806111f3816125d2565b915050611136565b5060006001600160a01b0316846001600160a01b0316826001600160a01b03167f4a39dc06d4c0dbc64b70af90fd698a233a518aa5d07e595d983b8c0526c8f7fb868660405161124c929190612725565b60405180910390a4604080516020810190915260009052610740565b61012d80546001600160a01b038381166001600160a01b0319831681179093556040519116919082907f8be0079c531659141344cd1fd0a4f28419497f9722a3daafe3b4186f6b6457e090600090a35050565b600082815260986020908152604090912082516112da92840190611b86565b50817f6bb7ff708619ba0610cba295a58592e0451dee2622938c8755667688daf3529b611306846104fc565b6040516113139190611cf0565b60405180910390a25050565b6001600160a01b03841661137f5760405162461bcd60e51b815260206004820152602160248201527f455243313135353a206d696e7420746f20746865207a65726f206164647265736044820152607360f81b606482015260840161042b565b6000611389610e39565b90506000611396856119fd565b905060006113a3856119fd565b905060008681526065602090815260408083206001600160a01b038b168452909152812080548792906113d790849061270d565b909155505060408051878152602081018790526001600160a01b03808a169260009291871691600080516020612a13833981519152910160405180910390a461142583600089898989611a48565b50505050505050565b816001600160a01b0316836001600160a01b031614156114a25760405162461bcd60e51b815260206004820152602960248201527f455243313135353a2073657474696e6720617070726f76616c20737461747573604482015268103337b91039b2b63360b91b606482015260840161042b565b6001600160a01b03838116600081815260666020908152604080832094871680845294825291829020805460ff191686151590811790915591519182527f17307eab39ab6107e8899845ad3d59bd9653f200f220920489ca2b5937696c31910160405180910390a3505050565b6127106001600160601b038216111561153a5760405162461bcd60e51b815260040161042b9061274a565b6001600160a01b03821661158c5760405162461bcd60e51b815260206004820152601960248201527822a921991c9c189d1034b73b30b634b2103932b1b2b4bb32b960391b604482015260640161042b565b604080518082019091526001600160a01b039092168083526001600160601b039091166020909201829052600160a01b9091021760c955565b6001600160a01b0384166115eb5760405162461bcd60e51b815260040161042b9061267e565b60006115f5610e39565b90506000611602856119fd565b9050600061160f856119fd565b905060008681526065602090815260408083206001600160a01b038c168452909152902054858110156116545760405162461bcd60e51b815260040161042b906126c3565b60008781526065602090815260408083206001600160a01b038d8116855292528083208985039055908a1682528120805488929061169390849061270d565b909155505060408051888152602081018890526001600160a01b03808b16928c82169291881691600080516020612a13833981519152910160405180910390a46116e1848a8a8a8a8a611a48565b505050505050505050565b6001600160a01b0383166117125760405162461bcd60e51b815260040161042b90612794565b600061171c610e39565b90506000611729846119fd565b90506000611736846119fd565b6040805160208082018352600091829052888252606581528282206001600160a01b038b16835290522054909150848110156117845760405162461bcd60e51b815260040161042b906127d7565b60008681526065602090815260408083206001600160a01b038b81168086529184528285208a8703905582518b81529384018a9052909290881691600080516020612a13833981519152910160405180910390a4604080516020810190915260009052611425565b600054610100900460ff166118135760405162461bcd60e51b815260040161042b9061281b565b610950611b0a565b600054610100900460ff166118425760405162461bcd60e51b815260040161042b9061281b565b610950611b4f565b60006001600160e01b03198216636cdb3d1360e11b148061187b57506001600160e01b031982166303a24d0760e21b145b8061046757506301ffc9a760e01b6001600160e01b0319831614610467565b6118ac846001600160a01b0316610cc9565b15610ffe5760405163bc197c8160e01b81526001600160a01b0385169063bc197c81906118e59089908990889088908890600401612866565b6020604051808303816000875af1925050508015611920575060408051601f3d908101601f1916820190925261191d918101906128c4565b60015b6119cd5761192c6128e1565b806308c379a0141561196657506119416128fc565b8061194c5750611968565b8060405162461bcd60e51b815260040161042b9190611cf0565b505b60405162461bcd60e51b815260206004820152603460248201527f455243313135353a207472616e7366657220746f206e6f6e20455243313135356044820152732932b1b2b4bb32b91034b6b83632b6b2b73a32b960611b606482015260840161042b565b6001600160e01b0319811663bc197c8160e01b146114255760405162461bcd60e51b815260040161042b90612985565b60408051600180825281830190925260609160009190602080830190803683370190505090508281600081518110611a3757611a376125bc565b602090810291909101015292915050565b611a5a846001600160a01b0316610cc9565b15610ffe5760405163f23a6e6160e01b81526001600160a01b0385169063f23a6e6190611a9390899089908890889088906004016129cd565b6020604051808303816000875af1925050508015611ace575060408051601f3d908101601f19168201909252611acb918101906128c4565b60015b611ada5761192c6128e1565b6001600160e01b0319811663f23a6e6160e01b146114255760405162461bcd60e51b815260040161042b90612985565b600054610100900460ff16611b315760405162461bcd60e51b815260040161042b9061281b565b604080516020810191829052600090819052610aee91609791611b86565b600054610100900460ff16611b765760405162461bcd60e51b815260040161042b9061281b565b610950611b81610e39565b611268565b828054611b9290612418565b90600052602060002090601f016020900481019282611bb45760008555611bfa565b82601f10611bcd57805160ff1916838001178555611bfa565b82800160010185558215611bfa579182015b82811115611bfa578251825591602001919060010190611bdf565b50611c06929150611c0a565b5090565b5b80821115611c065760008155600101611c0b565b80356001600160a01b0381168114611c3657600080fd5b919050565b60008060408385031215611c4e57600080fd5b611c5783611c1f565b946020939093013593505050565b6001600160e01b031981168114610aee57600080fd5b600060208284031215611c8d57600080fd5b81356105d581611c65565b60005b83811015611cb3578181015183820152602001611c9b565b838111156107405750506000910152565b60008151808452611cdc816020860160208601611c98565b601f01601f19169290920160200192915050565b6020815260006105d56020830184611cc4565b600060208284031215611d1557600080fd5b5035919050565b634e487b7160e01b600052604160045260246000fd5b601f8201601f191681016001600160401b0381118282101715611d5757611d57611d1c565b6040525050565b600082601f830112611d6f57600080fd5b81356001600160401b03811115611d8857611d88611d1c565b604051611d9f601f8301601f191660200182611d32565b818152846020838601011115611db457600080fd5b816020850160208301376000918101602001919091529392505050565b600080600060608486031215611de657600080fd5b833592506020840135915060408401356001600160401b03811115611e0a57600080fd5b611e1686828701611d5e565b9150509250925092565b60008060408385031215611e3357600080fd5b50508035926020909101359150565b60006001600160401b03821115611e5b57611e5b611d1c565b5060051b60200190565b600082601f830112611e7657600080fd5b81356020611e8382611e42565b604051611e908282611d32565b83815260059390931b8501820192828101915086841115611eb057600080fd5b8286015b84811015611ecb5780358352918301918301611eb4565b509695505050505050565b600080600080600060a08688031215611eee57600080fd5b611ef786611c1f565b9450611f0560208701611c1f565b935060408601356001600160401b0380821115611f2157600080fd5b611f2d89838a01611e65565b94506060880135915080821115611f4357600080fd5b611f4f89838a01611e65565b93506080880135915080821115611f6557600080fd5b50611f7288828901611d5e565b9150509295509295909350565b60008060008060808587031215611f9557600080fd5b843593506020850135925060408501356001600160401b03811115611fb957600080fd5b611fc587828801611d5e565b925050611fd460608601611c1f565b905092959194509250565b60008083601f840112611ff157600080fd5b5081356001600160401b0381111561200857600080fd5b6020830191508360208260051b85010111156106ac57600080fd5b80356001600160601b0381168114611c3657600080fd5b6000806000806060858703121561205057600080fd5b84356001600160401b0381111561206657600080fd5b61207287828801611fdf565b9095509350612085905060208601611c1f565b9150611fd460408601612023565b600080604083850312156120a657600080fd5b82356001600160401b03808211156120bd57600080fd5b818501915085601f8301126120d157600080fd5b813560206120de82611e42565b6040516120eb8282611d32565b83815260059390931b850182019282810191508984111561210b57600080fd5b948201945b838610156121305761212186611c1f565b82529482019490820190612110565b9650508601359250508082111561214657600080fd5b5061215385828601611e65565b9150509250929050565b600081518084526020808501945080840160005b8381101561218d57815187529582019590820190600101612171565b509495945050505050565b6020815260006105d5602083018461215d565b6000602082840312156121bd57600080fd5b6105d582611c1f565b6000806000606084860312156121db57600080fd5b6121e484611c1f565b925060208401356001600160401b038082111561220057600080fd5b61220c87838801611e65565b9350604086013591508082111561222257600080fd5b50611e1686828701611e65565b6000806040838503121561224257600080fd5b8235915060208301356001600160401b0381111561225f57600080fd5b61215385828601611d5e565b60008060006060848603121561228057600080fd5b61228984611c1f565b95602085013595506040909401359392505050565b600080604083850312156122b157600080fd5b6122ba83611c1f565b9150602083013580151581146122cf57600080fd5b809150509250929050565b600080602083850312156122ed57600080fd5b82356001600160401b0381111561230357600080fd5b61230f85828601611fdf565b90969095509350505050565b6000806040838503121561232e57600080fd5b61233783611c1f565b915061234560208401612023565b90509250929050565b6000806040838503121561236157600080fd5b61236a83611c1f565b915061234560208401611c1f565b600080600080600060a0868803121561239057600080fd5b61239986611c1f565b94506123a760208701611c1f565b9350604086013592506060860135915060808601356001600160401b038111156123d057600080fd5b611f7288828901611d5e565b6000602082840312156123ee57600080fd5b81356001600160401b0381111561240457600080fd5b61241084828501611d5e565b949350505050565b600181811c9082168061242c57607f821691505b6020821081141561244d57634e487b7160e01b600052602260045260246000fd5b50919050565b60008151612465818560208601611c98565b9290920192915050565b600080845481600182811c91508083168061248b57607f831692505b60208084108214156124ab57634e487b7160e01b86526022600452602486fd5b8180156124bf57600181146124d0576124fd565b60ff198616895284890196506124fd565b60008b81526020902060005b868110156124f55781548b8201529085019083016124dc565b505084890196505b50505050505061250d8185612453565b95945050505050565b634e487b7160e01b600052601160045260246000fd5b600081600019048311821515161561254657612546612516565b500290565b60008261256857634e487b7160e01b600052601260045260246000fd5b500490565b6020808252602f908201527f455243313135353a2063616c6c6572206973206e6f7420746f6b656e206f776e60408201526e195c881b9bdc88185c1c1c9bdd9959608a1b606082015260800190565b634e487b7160e01b600052603260045260246000fd5b60006000198214156125e6576125e6612516565b5060010190565b60208082526029908201527f455243313135353a2063616c6c6572206973206e6f74206f776e6572206e6f7260408201526808185c1c1c9bdd995960ba1b606082015260800190565b60208082526028908201527f455243313135353a2069647320616e6420616d6f756e7473206c656e677468206040820152670dad2e6dac2e8c6d60c31b606082015260800190565b60208082526025908201527f455243313135353a207472616e7366657220746f20746865207a65726f206164604082015264647265737360d81b606082015260800190565b6020808252602a908201527f455243313135353a20696e73756666696369656e742062616c616e636520666f60408201526939103a3930b739b332b960b11b606082015260800190565b6000821982111561272057612720612516565b500190565b604081526000612738604083018561215d565b828103602084015261250d818561215d565b6020808252602a908201527f455243323938313a20726f79616c7479206665652077696c6c206578636565646040820152692073616c65507269636560b01b606082015260800190565b60208082526023908201527f455243313135353a206275726e2066726f6d20746865207a65726f206164647260408201526265737360e81b606082015260800190565b60208082526024908201527f455243313135353a206275726e20616d6f756e7420657863656564732062616c604082015263616e636560e01b606082015260800190565b6020808252602b908201527f496e697469616c697a61626c653a20636f6e7472616374206973206e6f74206960408201526a6e697469616c697a696e6760a81b606082015260800190565b6001600160a01b0386811682528516602082015260a0604082018190526000906128929083018661215d565b82810360608401526128a4818661215d565b905082810360808401526128b88185611cc4565b98975050505050505050565b6000602082840312156128d657600080fd5b81516105d581611c65565b600060033d1115610cff5760046000803e5060005160e01c90565b600060443d101561290a5790565b6040516003193d81016004833e81513d6001600160401b03816024840111818411171561293957505050505090565b82850191508151818111156129515750505050505090565b843d870101602082850101111561296b5750505050505090565b61297a60208286010187611d32565b509095945050505050565b60208082526028908201527f455243313135353a204552433131353552656365697665722072656a656374656040820152676420746f6b656e7360c01b606082015260800190565b6001600160a01b03868116825285166020820152604081018490526060810183905260a060808201819052600090612a0790830184611cc4565b97965050505050505056fec3d58168c5ae7397731d063d5bbf3d657854427343f4c083240f7aacaa2d0f62a2646970667358221220d0718b09e0cc43c2aa37120ccd76970283a605918c70c42f098b33b57cfd884864736f6c634300080b0033496e697469616c697a61626c653a20636f6e7472616374206973206e6f742069",
  "linkReferences": {},
  "deployedLinkReferences": {}
}