{
  "_format": "hh-sol-artifact-1",
  "contractName": "RootForwarder",
  "sourceName": "contracts/Utils/RootForwarder.sol",
  "abi": [
    {
      "inputs": [],
      "stateMutability": "nonpayable",
      "type": "constructor"
    },
    {
      "anonymous": false,
      "inputs": [
        {
          "indexed": true,
          "internalType": "address",
          "name": "user",
          "type": "address"
        },
        {
          "indexed": true,
          "internalType": "address",
          "name": "destination",
          "type": "address"
        },
        {
          "indexed": false,
          "internalType": "uint256",
          "name": "nonce",
          "type": "uint256"
        },
        {
          "indexed": false,
          "internalType": "bytes",
          "name": "funcSig",
          "type": "bytes"
        }
      ],
      "name": "MetaTransaction",
      "type": "event"
    },
    {
      "anonymous": false,
      "inputs": [
        {
          "indexed": true,
          "internalType": "address",
          "name": "previousOwner",
          "type": "address"
        },
        {
          "indexed": true,
          "internalType": "address",
          "name": "newOwner",
          "type": "address"
        }
      ],
      "name": "OwnershipTransferred",
      "type": "event"
    },
    {
      "inputs": [
        {
          "components": [
            {
              "internalType": "address",
              "name": "from",
              "type": "address"
            },
            {
              "internalType": "address",
              "name": "to",
              "type": "address"
            },
            {
              "internalType": "uint256",
              "name": "value",
              "type": "uint256"
            },
            {
              "internalType": "uint256",
              "name": "gas",
              "type": "uint256"
            },
            {
              "internalType": "uint256",
              "name": "nonce",
              "type": "uint256"
            },
            {
              "internalType": "bytes",
              "name": "data",
              "type": "bytes"
            }
          ],
          "internalType": "struct RootForwarder.ForwardRequest",
          "name": "req",
          "type": "tuple"
        },
        {
          "internalType": "bytes",
          "name": "signature",
          "type": "bytes"
        }
      ],
      "name": "execute",
      "outputs": [
        {
          "internalType": "bool",
          "name": "",
          "type": "bool"
        },
        {
          "internalType": "bytes",
          "name": "",
          "type": "bytes"
        }
      ],
      "stateMutability": "payable",
      "type": "function"
    },
    {
      "inputs": [
        {
          "internalType": "address",
          "name": "from",
          "type": "address"
        }
      ],
      "name": "getNonce",
      "outputs": [
        {
          "internalType": "uint256",
          "name": "",
          "type": "uint256"
        }
      ],
      "stateMutability": "view",
      "type": "function"
    },
    {
      "inputs": [],
      "name": "owner",
      "outputs": [
        {
          "internalType": "address",
          "name": "",
          "type": "address"
        }
      ],
      "stateMutability": "view",
      "type": "function"
    },
    {
      "inputs": [],
      "name": "relayer",
      "outputs": [
        {
          "internalType": "address",
          "name": "",
          "type": "address"
        }
      ],
      "stateMutability": "view",
      "type": "function"
    },
    {
      "inputs": [],
      "name": "renounceOwnership",
      "outputs": [],
      "stateMutability": "nonpayable",
      "type": "function"
    },
    {
      "inputs": [
        {
          "internalType": "address",
          "name": "_relayer",
          "type": "address"
        }
      ],
      "name": "setRelayer",
      "outputs": [],
      "stateMutability": "nonpayable",
      "type": "function"
    },
    {
      "inputs": [
        {
          "internalType": "address",
          "name": "newOwner",
          "type": "address"
        }
      ],
      "name": "transferOwnership",
      "outputs": [],
      "stateMutability": "nonpayable",
      "type": "function"
    },
    {
      "inputs": [
        {
          "components": [
            {
              "internalType": "address",
              "name": "from",
              "type": "address"
            },
            {
              "internalType": "address",
              "name": "to",
              "type": "address"
            },
            {
              "internalType": "uint256",
              "name": "value",
              "type": "uint256"
            },
            {
              "internalType": "uint256",
              "name": "gas",
              "type": "uint256"
            },
            {
              "internalType": "uint256",
              "name": "nonce",
              "type": "uint256"
            },
            {
              "internalType": "bytes",
              "name": "data",
              "type": "bytes"
            }
          ],
          "internalType": "struct RootForwarder.ForwardRequest",
          "name": "req",
          "type": "tuple"
        },
        {
          "internalType": "bytes",
          "name": "signature",
          "type": "bytes"
        }
      ],
      "name": "verify",
      "outputs": [
        {
          "internalType": "bool",
          "name": "",
          "type": "bool"
        }
      ],
      "stateMutability": "view",
      "type": "function"
    }
  ],
  "bytecode": "0x61014060405234801561001157600080fd5b50604080518082018252600d81526c2937b7ba2337b93bb0b93232b960991b602080830191825283518085019094526005845264181718171960d91b908401528151902060e08190527fb30367effb941b728181f67f3bd24a38a4fff408ee7fb3b074425c9fb5e9be746101008190524660a0529192917f8b73c3c69bb8fe3d512ecc4cf759cc79239f7b179b0ffacaa9a75d522b39400f6100f88184846040805160208101859052908101839052606081018290524660808201523060a082015260009060c0016040516020818303038152906040528051906020012090509392505050565b6080523060c052610120525061011892506101139150503390565b61011d565b61016d565b600080546001600160a01b038381166001600160a01b0319831681178455604051919092169283917f8be0079c531659141344cd1fd0a4f28419497f9722a3daafe3b4186f6b6457e09190a35050565b60805160a05160c05160e0516101005161012051610f876101bc6000396000610884015260006108d3015260006108ae01526000610807015260006108310152600061085b0152610f876000f3fe60806040526004361061006b5760003560e01c80632d0335ab1461007057806347153f82146100b95780636548e9bc146100da578063715018a6146100fc5780638406c079146101115780638da5cb5b14610149578063bf5d3bdb14610167578063f2fde38b14610197575b600080fd5b34801561007c57600080fd5b506100a661008b366004610c00565b6001600160a01b031660009081526002602052604090205490565b6040519081526020015b60405180910390f35b6100cc6100c7366004610c30565b6101b7565b6040516100b0929190610d2b565b3480156100e657600080fd5b506100fa6100f5366004610c00565b610443565b005b34801561010857600080fd5b506100fa61046d565b34801561011d57600080fd5b50600154610131906001600160a01b031681565b6040516001600160a01b0390911681526020016100b0565b34801561015557600080fd5b506000546001600160a01b0316610131565b34801561017357600080fd5b50610187610182366004610c30565b610481565b60405190151581526020016100b0565b3480156101a357600080fd5b506100fa6101b2366004610c00565b610600565b6001546000906060906001600160a01b0316336001600160a01b0316146102145760405162461bcd60e51b815260206004820152600c60248201526b155b985d5d1a1bdc9a5e995960a21b60448201526064015b60405180910390fd5b61021f858585610481565b6102835760405162461bcd60e51b815260206004820152602f60248201527f526f6f74466f727761726465723a207369676e617475726520646f6573206e6f60448201526e1d081b585d18da081c995c5d595cdd608a1b606482015260840161020b565b61029260808601356001610d4e565b600260006102a36020890189610c00565b6001600160a01b03166001600160a01b03168152602001908152602001600020819055506000808660200160208101906102dd9190610c00565b6001600160a01b0316606088013560408901356102fd60a08b018b610d74565b61030a60208d018d610c00565b60405160200161031c93929190610dbb565b60408051601f198184030181529082905261033691610de1565b600060405180830381858888f193505050503d8060008114610374576040519150601f19603f3d011682016040523d82523d6000602084013e610379565b606091505b50915091508161038882610679565b906103a65760405162461bcd60e51b815260040161020b9190610dfd565b506103b6603f6060890135610e10565b5a116103be57fe5b6103ce6040880160208901610c00565b6001600160a01b03166103e46020890189610c00565b6001600160a01b03167fbe5a50b636cbf07a0dca6929bcfa1c4ae033684b93bb77bd0b9780dca0ed5f9460808a013561042060a08c018c610d74565b60405161042f93929190610e32565b60405180910390a390969095509350505050565b61044b6106de565b600180546001600160a01b0319166001600160a01b0392909216919091179055565b6104756106de565b61047f6000610738565b565b60008061059484848080601f01602080910402602001604051908101604052809392919081815260200183838082843760009201919091525061058e92507fdd8f4b70b0f4393e889bd39128a30628a78b61816a9eb8199759e7a349657e4891506104f1905060208a018a610c00565b61050160408b0160208c01610c00565b60408b013560608c013560808d013561051d60a08f018f610d74565b60405161052b929190610e68565b6040805191829003822060208301989098526001600160a01b0396871690820152949093166060850152608084019190915260a083015260c082015260e08101919091526101000160405160208183030381529060405280519060200120610788565b906107d6565b90506080850135600260006105ac6020890189610c00565b6001600160a01b03166001600160a01b03168152602001908152602001600020541480156105f757506105e26020860186610c00565b6001600160a01b0316816001600160a01b0316145b95945050505050565b6106086106de565b6001600160a01b03811661066d5760405162461bcd60e51b815260206004820152602660248201527f4f776e61626c653a206e6577206f776e657220697320746865207a65726f206160448201526564647265737360d01b606482015260840161020b565b61067681610738565b50565b60606044825110156106be57505060408051808201909152601d81527f5472616e73616374696f6e2072657665727465642073696c656e746c79000000602082015290565b600482019150818060200190518101906106d89190610e8e565b92915050565b6000546001600160a01b0316331461047f5760405162461bcd60e51b815260206004820181905260248201527f4f776e61626c653a2063616c6c6572206973206e6f7420746865206f776e6572604482015260640161020b565b600080546001600160a01b038381166001600160a01b0319831681178455604051919092169283917f8be0079c531659141344cd1fd0a4f28419497f9722a3daafe3b4186f6b6457e09190a35050565b60006106d86107956107fa565b8360405161190160f01b6020820152602281018390526042810182905260009060620160405160208183030381529060405280519060200120905092915050565b60008060006107e58585610921565b915091506107f281610967565b509392505050565b6000306001600160a01b037f00000000000000000000000000000000000000000000000000000000000000001614801561085357507f000000000000000000000000000000000000000000000000000000000000000046145b1561087d57507f000000000000000000000000000000000000000000000000000000000000000090565b50604080517f00000000000000000000000000000000000000000000000000000000000000006020808301919091527f0000000000000000000000000000000000000000000000000000000000000000828401527f000000000000000000000000000000000000000000000000000000000000000060608301524660808301523060a0808401919091528351808403909101815260c0909201909252805191012090565b6000808251604114156109585760208301516040840151606085015160001a61094c87828585610b1d565b94509450505050610960565b506000905060025b9250929050565b600081600481111561097b5761097b610f3b565b14156109845750565b600181600481111561099857610998610f3b565b14156109e15760405162461bcd60e51b815260206004820152601860248201527745434453413a20696e76616c6964207369676e617475726560401b604482015260640161020b565b60028160048111156109f5576109f5610f3b565b1415610a435760405162461bcd60e51b815260206004820152601f60248201527f45434453413a20696e76616c6964207369676e6174757265206c656e67746800604482015260640161020b565b6003816004811115610a5757610a57610f3b565b1415610ab05760405162461bcd60e51b815260206004820152602260248201527f45434453413a20696e76616c6964207369676e6174757265202773272076616c604482015261756560f01b606482015260840161020b565b6004816004811115610ac457610ac4610f3b565b14156106765760405162461bcd60e51b815260206004820152602260248201527f45434453413a20696e76616c6964207369676e6174757265202776272076616c604482015261756560f01b606482015260840161020b565b6000806fa2a8918ca85bafe22016d0b997e4df60600160ff1b03831115610b4a5750600090506003610bf7565b8460ff16601b14158015610b6257508460ff16601c14155b15610b735750600090506004610bf7565b6040805160008082526020820180845289905260ff881692820192909252606081018690526080810185905260019060a0016020604051602081039080840390855afa158015610bc7573d6000803e3d6000fd5b5050604051601f1901519150506001600160a01b038116610bf057600060019250925050610bf7565b9150600090505b94509492505050565b600060208284031215610c1257600080fd5b81356001600160a01b0381168114610c2957600080fd5b9392505050565b600080600060408486031215610c4557600080fd5b833567ffffffffffffffff80821115610c5d57600080fd5b9085019060c08288031215610c7157600080fd5b90935060208501359080821115610c8757600080fd5b818601915086601f830112610c9b57600080fd5b813581811115610caa57600080fd5b876020828501011115610cbc57600080fd5b6020830194508093505050509250925092565b60005b83811015610cea578181015183820152602001610cd2565b83811115610cf9576000848401525b50505050565b60008151808452610d17816020860160208601610ccf565b601f01601f19169290920160200192915050565b8215158152604060208201526000610d466040830184610cff565b949350505050565b60008219821115610d6f57634e487b7160e01b600052601160045260246000fd5b500190565b6000808335601e19843603018112610d8b57600080fd5b83018035915067ffffffffffffffff821115610da657600080fd5b60200191503681900382131561096057600080fd5b8284823760609190911b6bffffffffffffffffffffffff19169101908152601401919050565b60008251610df3818460208701610ccf565b9190910192915050565b602081526000610c296020830184610cff565b600082610e2d57634e487b7160e01b600052601260045260246000fd5b500490565b83815260406020820152816040820152818360608301376000818301606090810191909152601f909201601f1916010192915050565b8183823760009101908152919050565b634e487b7160e01b600052604160045260246000fd5b600060208284031215610ea057600080fd5b815167ffffffffffffffff80821115610eb857600080fd5b818401915084601f830112610ecc57600080fd5b815181811115610ede57610ede610e78565b604051601f8201601f19908116603f01168101908382118183101715610f0657610f06610e78565b81604052828152876020848701011115610f1f57600080fd5b610f30836020830160208801610ccf565b979650505050505050565b634e487b7160e01b600052602160045260246000fdfea26469706673582212202354390998e061edeb9007766f8bc214c7db5e52b9be42a68e75cb466b4d58bb64736f6c634300080b0033",
  "linkReferences": {},
  "deployedLinkReferences": {}
}